{
  "contractName": "staking",
  "abi": [
    {
      "inputs": [
        {
          "internalType": "address[]",
          "name": "_token",
          "type": "address[]"
        }
      ],
      "stateMutability": "nonpayable",
      "type": "constructor"
    },
    {
      "anonymous": false,
      "inputs": [
        {
          "indexed": true,
          "internalType": "address",
          "name": "_owner",
          "type": "address"
        },
        {
          "indexed": true,
          "internalType": "address",
          "name": "_spender",
          "type": "address"
        },
        {
          "indexed": false,
          "internalType": "uint256",
          "name": "_tokens",
          "type": "uint256"
        }
      ],
      "name": "Approval",
      "type": "event"
    },
    {
      "anonymous": false,
      "inputs": [
        {
          "indexed": false,
          "internalType": "bool",
          "name": "",
          "type": "bool"
        }
      ],
      "name": "Data",
      "type": "event"
    },
    {
      "anonymous": false,
      "inputs": [
        {
          "indexed": true,
          "internalType": "address",
          "name": "previousOwner",
          "type": "address"
        },
        {
          "indexed": true,
          "internalType": "address",
          "name": "newOwner",
          "type": "address"
        }
      ],
      "name": "OwnershipTransferred",
      "type": "event"
    },
    {
      "anonymous": false,
      "inputs": [
        {
          "indexed": true,
          "internalType": "uint256",
          "name": "_roundId",
          "type": "uint256"
        },
        {
          "indexed": true,
          "internalType": "address",
          "name": "_token",
          "type": "address"
        },
        {
          "indexed": true,
          "internalType": "address",
          "name": "_whom",
          "type": "address"
        },
        {
          "indexed": false,
          "internalType": "uint256",
          "name": "_amount",
          "type": "uint256"
        }
      ],
      "name": "Stack",
      "type": "event"
    },
    {
      "anonymous": false,
      "inputs": [
        {
          "indexed": true,
          "internalType": "uint256",
          "name": "_roundId",
          "type": "uint256"
        },
        {
          "indexed": true,
          "internalType": "address",
          "name": "_whom",
          "type": "address"
        },
        {
          "indexed": false,
          "internalType": "uint256",
          "name": "_amount",
          "type": "uint256"
        }
      ],
      "name": "StackClaimed",
      "type": "event"
    },
    {
      "anonymous": false,
      "inputs": [
        {
          "indexed": true,
          "internalType": "address",
          "name": "_from",
          "type": "address"
        },
        {
          "indexed": true,
          "internalType": "address",
          "name": "_to",
          "type": "address"
        },
        {
          "indexed": false,
          "internalType": "uint256",
          "name": "_tokens",
          "type": "uint256"
        }
      ],
      "name": "Transfer",
      "type": "event"
    },
    {
      "anonymous": false,
      "inputs": [
        {
          "indexed": true,
          "internalType": "uint256",
          "name": "_roundId",
          "type": "uint256"
        },
        {
          "indexed": true,
          "internalType": "address",
          "name": "_whom",
          "type": "address"
        },
        {
          "indexed": false,
          "internalType": "uint256",
          "name": "_amount",
          "type": "uint256"
        }
      ],
      "name": "UnStack",
      "type": "event"
    },
    {
      "inputs": [],
      "name": "DECIMAL_NOMINATOR",
      "outputs": [
        {
          "internalType": "uint256",
          "name": "",
          "type": "uint256"
        }
      ],
      "stateMutability": "view",
      "type": "function",
      "constant": true
    },
    {
      "inputs": [],
      "name": "PERCENT_NOMINATOR",
      "outputs": [
        {
          "internalType": "uint256",
          "name": "",
          "type": "uint256"
        }
      ],
      "stateMutability": "view",
      "type": "function",
      "constant": true
    },
    {
      "inputs": [],
      "name": "_initialAmount",
      "outputs": [
        {
          "internalType": "uint256",
          "name": "",
          "type": "uint256"
        }
      ],
      "stateMutability": "view",
      "type": "function",
      "constant": true
    },
    {
      "inputs": [],
      "name": "acceptOwnership",
      "outputs": [
        {
          "internalType": "bool",
          "name": "",
          "type": "bool"
        }
      ],
      "stateMutability": "nonpayable",
      "type": "function"
    },
    {
      "inputs": [
        {
          "internalType": "address",
          "name": "_token",
          "type": "address"
        },
        {
          "internalType": "address",
          "name": "_whom",
          "type": "address"
        }
      ],
      "name": "addaccountToPayNode",
      "outputs": [
        {
          "internalType": "bool",
          "name": "",
          "type": "bool"
        }
      ],
      "stateMutability": "nonpayable",
      "type": "function"
    },
    {
      "inputs": [
        {
          "internalType": "address",
          "name": "_tokenOwner",
          "type": "address"
        },
        {
          "internalType": "address",
          "name": "_spenderaddr",
          "type": "address"
        }
      ],
      "name": "allowance",
      "outputs": [
        {
          "internalType": "uint256",
          "name": "remaining",
          "type": "uint256"
        }
      ],
      "stateMutability": "view",
      "type": "function",
      "constant": true
    },
    {
      "inputs": [
        {
          "internalType": "address",
          "name": "",
          "type": "address"
        }
      ],
      "name": "annualMintPercentage",
      "outputs": [
        {
          "internalType": "uint256",
          "name": "",
          "type": "uint256"
        }
      ],
      "stateMutability": "view",
      "type": "function",
      "constant": true
    },
    {
      "inputs": [
        {
          "internalType": "address",
          "name": "_spender",
          "type": "address"
        },
        {
          "internalType": "uint256",
          "name": "_value",
          "type": "uint256"
        }
      ],
      "name": "approve",
      "outputs": [
        {
          "internalType": "bool",
          "name": "success",
          "type": "bool"
        }
      ],
      "stateMutability": "nonpayable",
      "type": "function"
    },
    {
      "inputs": [
        {
          "internalType": "address",
          "name": "_Owner",
          "type": "address"
        }
      ],
      "name": "balanceOf",
      "outputs": [
        {
          "internalType": "uint256",
          "name": "balance",
          "type": "uint256"
        }
      ],
      "stateMutability": "view",
      "type": "function",
      "constant": true
    },
    {
      "inputs": [
        {
          "internalType": "address",
          "name": "",
          "type": "address"
        }
      ],
      "name": "balances",
      "outputs": [
        {
          "internalType": "uint256",
          "name": "",
          "type": "uint256"
        }
      ],
      "stateMutability": "view",
      "type": "function",
      "constant": true
    },
    {
      "inputs": [],
      "name": "currentStackId",
      "outputs": [
        {
          "internalType": "uint256",
          "name": "",
          "type": "uint256"
        }
      ],
      "stateMutability": "view",
      "type": "function",
      "constant": true
    },
    {
      "inputs": [
        {
          "internalType": "address",
          "name": "",
          "type": "address"
        },
        {
          "internalType": "uint256",
          "name": "",
          "type": "uint256"
        }
      ],
      "name": "dayWiseRatio",
      "outputs": [
        {
          "internalType": "uint256",
          "name": "",
          "type": "uint256"
        }
      ],
      "stateMutability": "view",
      "type": "function",
      "constant": true
    },
    {
      "inputs": [],
      "name": "decimals",
      "outputs": [
        {
          "internalType": "uint256",
          "name": "",
          "type": "uint256"
        }
      ],
      "stateMutability": "view",
      "type": "function",
      "constant": true
    },
    {
      "inputs": [],
      "name": "extraMintForPayNodes",
      "outputs": [
        {
          "internalType": "uint256",
          "name": "",
          "type": "uint256"
        }
      ],
      "stateMutability": "view",
      "type": "function",
      "constant": true
    },
    {
      "inputs": [
        {
          "internalType": "address",
          "name": "",
          "type": "address"
        },
        {
          "internalType": "address",
          "name": "",
          "type": "address"
        }
      ],
      "name": "isPayNoder",
      "outputs": [
        {
          "internalType": "bool",
          "name": "",
          "type": "bool"
        }
      ],
      "stateMutability": "view",
      "type": "function",
      "constant": true
    },
    {
      "inputs": [
        {
          "internalType": "address",
          "name": "",
          "type": "address"
        },
        {
          "internalType": "address",
          "name": "",
          "type": "address"
        }
      ],
      "name": "lastStackClaimed",
      "outputs": [
        {
          "internalType": "uint256",
          "name": "",
          "type": "uint256"
        }
      ],
      "stateMutability": "view",
      "type": "function",
      "constant": true
    },
    {
      "inputs": [
        {
          "internalType": "address",
          "name": "",
          "type": "address"
        }
      ],
      "name": "listedToken",
      "outputs": [
        {
          "internalType": "bool",
          "name": "",
          "type": "bool"
        }
      ],
      "stateMutability": "view",
      "type": "function",
      "constant": true
    },
    {
      "inputs": [],
      "name": "minimumBalance",
      "outputs": [
        {
          "internalType": "uint256",
          "name": "",
          "type": "uint256"
        }
      ],
      "stateMutability": "view",
      "type": "function",
      "constant": true
    },
    {
      "inputs": [
        {
          "internalType": "uint256",
          "name": "amount",
          "type": "uint256"
        }
      ],
      "name": "mintToken",
      "outputs": [
        {
          "internalType": "bool",
          "name": "",
          "type": "bool"
        }
      ],
      "stateMutability": "nonpayable",
      "type": "function"
    },
    {
      "inputs": [],
      "name": "mintingOwner",
      "outputs": [
        {
          "internalType": "address",
          "name": "",
          "type": "address"
        }
      ],
      "stateMutability": "view",
      "type": "function",
      "constant": true
    },
    {
      "inputs": [],
      "name": "name",
      "outputs": [
        {
          "internalType": "string",
          "name": "",
          "type": "string"
        }
      ],
      "stateMutability": "view",
      "type": "function",
      "constant": true
    },
    {
      "inputs": [],
      "name": "newMintingOwner",
      "outputs": [
        {
          "internalType": "address",
          "name": "",
          "type": "address"
        }
      ],
      "stateMutability": "view",
      "type": "function",
      "constant": true
    },
    {
      "inputs": [],
      "name": "newOwner",
      "outputs": [
        {
          "internalType": "address payable",
          "name": "",
          "type": "address"
        }
      ],
      "stateMutability": "view",
      "type": "function",
      "constant": true
    },
    {
      "inputs": [],
      "name": "owner",
      "outputs": [
        {
          "internalType": "address payable",
          "name": "",
          "type": "address"
        }
      ],
      "stateMutability": "view",
      "type": "function",
      "constant": true
    },
    {
      "inputs": [
        {
          "internalType": "address",
          "name": "",
          "type": "address"
        },
        {
          "internalType": "address",
          "name": "",
          "type": "address"
        }
      ],
      "name": "payNoderIndex",
      "outputs": [
        {
          "internalType": "uint256",
          "name": "",
          "type": "uint256"
        }
      ],
      "stateMutability": "view",
      "type": "function",
      "constant": true
    },
    {
      "inputs": [],
      "name": "payNoderSlot",
      "outputs": [
        {
          "internalType": "uint256",
          "name": "",
          "type": "uint256"
        }
      ],
      "stateMutability": "view",
      "type": "function",
      "constant": true
    },
    {
      "inputs": [
        {
          "internalType": "uint256",
          "name": "",
          "type": "uint256"
        },
        {
          "internalType": "uint256",
          "name": "",
          "type": "uint256"
        }
      ],
      "name": "payNoders",
      "outputs": [
        {
          "internalType": "address",
          "name": "",
          "type": "address"
        }
      ],
      "stateMutability": "view",
      "type": "function",
      "constant": true
    },
    {
      "inputs": [
        {
          "internalType": "address",
          "name": "_token",
          "type": "address"
        },
        {
          "internalType": "address",
          "name": "_whom",
          "type": "address"
        }
      ],
      "name": "removeaccountToPayNode",
      "outputs": [
        {
          "internalType": "bool",
          "name": "",
          "type": "bool"
        }
      ],
      "stateMutability": "nonpayable",
      "type": "function"
    },
    {
      "inputs": [
        {
          "internalType": "address",
          "name": "",
          "type": "address"
        },
        {
          "internalType": "address",
          "name": "",
          "type": "address"
        },
        {
          "internalType": "uint256",
          "name": "",
          "type": "uint256"
        }
      ],
      "name": "roundWiseToken",
      "outputs": [
        {
          "internalType": "uint256",
          "name": "",
          "type": "uint256"
        }
      ],
      "stateMutability": "view",
      "type": "function",
      "constant": true
    },
    {
      "inputs": [
        {
          "internalType": "uint256",
          "name": "_extraMintForPayNodes",
          "type": "uint256"
        }
      ],
      "name": "setExtraMintingForNodes",
      "outputs": [
        {
          "internalType": "bool",
          "name": "",
          "type": "bool"
        }
      ],
      "stateMutability": "nonpayable",
      "type": "function"
    },
    {
      "inputs": [
        {
          "internalType": "uint256",
          "name": "_minimumBalance",
          "type": "uint256"
        }
      ],
      "name": "setMinimumBalanceForPayNoder",
      "outputs": [
        {
          "internalType": "bool",
          "name": "",
          "type": "bool"
        }
      ],
      "stateMutability": "nonpayable",
      "type": "function"
    },
    {
      "inputs": [
        {
          "internalType": "uint256",
          "name": "_payNoderSlot",
          "type": "uint256"
        }
      ],
      "name": "setPayNoderSlot",
      "outputs": [
        {
          "internalType": "bool",
          "name": "",
          "type": "bool"
        }
      ],
      "stateMutability": "nonpayable",
      "type": "function"
    },
    {
      "inputs": [
        {
          "internalType": "address",
          "name": "",
          "type": "address"
        },
        {
          "internalType": "address",
          "name": "",
          "type": "address"
        }
      ],
      "name": "stackBalance",
      "outputs": [
        {
          "internalType": "uint256",
          "name": "",
          "type": "uint256"
        }
      ],
      "stateMutability": "view",
      "type": "function",
      "constant": true
    },
    {
      "inputs": [],
      "name": "symbol",
      "outputs": [
        {
          "internalType": "string",
          "name": "",
          "type": "string"
        }
      ],
      "stateMutability": "view",
      "type": "function",
      "constant": true
    },
    {
      "inputs": [
        {
          "internalType": "address",
          "name": "",
          "type": "address"
        }
      ],
      "name": "tokenPayNode",
      "outputs": [
        {
          "internalType": "address",
          "name": "",
          "type": "address"
        }
      ],
      "stateMutability": "view",
      "type": "function",
      "constant": true
    },
    {
      "inputs": [
        {
          "internalType": "address",
          "name": "",
          "type": "address"
        }
      ],
      "name": "tokenRoundId",
      "outputs": [
        {
          "internalType": "uint256",
          "name": "",
          "type": "uint256"
        }
      ],
      "stateMutability": "view",
      "type": "function",
      "constant": true
    },
    {
      "inputs": [],
      "name": "tokenname",
      "outputs": [
        {
          "internalType": "string",
          "name": "",
          "type": "string"
        }
      ],
      "stateMutability": "view",
      "type": "function",
      "constant": true
    },
    {
      "inputs": [
        {
          "internalType": "uint256",
          "name": "",
          "type": "uint256"
        }
      ],
      "name": "tokens",
      "outputs": [
        {
          "internalType": "address",
          "name": "",
          "type": "address"
        }
      ],
      "stateMutability": "view",
      "type": "function",
      "constant": true
    },
    {
      "inputs": [],
      "name": "tokensymbol",
      "outputs": [
        {
          "internalType": "string",
          "name": "",
          "type": "string"
        }
      ],
      "stateMutability": "view",
      "type": "function",
      "constant": true
    },
    {
      "inputs": [],
      "name": "totalSupply",
      "outputs": [
        {
          "internalType": "uint256",
          "name": "",
          "type": "uint256"
        }
      ],
      "stateMutability": "view",
      "type": "function",
      "constant": true
    },
    {
      "inputs": [],
      "name": "totalSupply_",
      "outputs": [
        {
          "internalType": "uint256",
          "name": "",
          "type": "uint256"
        }
      ],
      "stateMutability": "view",
      "type": "function",
      "constant": true
    },
    {
      "inputs": [
        {
          "internalType": "address",
          "name": "",
          "type": "address"
        }
      ],
      "name": "totalTokens",
      "outputs": [
        {
          "internalType": "uint256",
          "name": "",
          "type": "uint256"
        }
      ],
      "stateMutability": "view",
      "type": "function",
      "constant": true
    },
    {
      "inputs": [
        {
          "internalType": "address",
          "name": "_to",
          "type": "address"
        },
        {
          "internalType": "uint256",
          "name": "_tokens",
          "type": "uint256"
        }
      ],
      "name": "transfer",
      "outputs": [
        {
          "internalType": "bool",
          "name": "success",
          "type": "bool"
        }
      ],
      "stateMutability": "nonpayable",
      "type": "function"
    },
    {
      "inputs": [
        {
          "internalType": "address",
          "name": "_from",
          "type": "address"
        },
        {
          "internalType": "address",
          "name": "__to",
          "type": "address"
        },
        {
          "internalType": "uint256",
          "name": "_token",
          "type": "uint256"
        }
      ],
      "name": "transferFrom",
      "outputs": [
        {
          "internalType": "bool",
          "name": "success",
          "type": "bool"
        }
      ],
      "stateMutability": "nonpayable",
      "type": "function"
    },
    {
      "inputs": [
        {
          "internalType": "address",
          "name": "_whom",
          "type": "address"
        }
      ],
      "name": "transferMintingOwnerShip",
      "outputs": [
        {
          "internalType": "bool",
          "name": "",
          "type": "bool"
        }
      ],
      "stateMutability": "nonpayable",
      "type": "function"
    },
    {
      "inputs": [
        {
          "internalType": "address payable",
          "name": "_newOwner",
          "type": "address"
        }
      ],
      "name": "transferOwnership",
      "outputs": [],
      "stateMutability": "nonpayable",
      "type": "function"
    },
    {
      "inputs": [
        {
          "internalType": "address[]",
          "name": "_token",
          "type": "address[]"
        },
        {
          "internalType": "uint256[]",
          "name": "_amount",
          "type": "uint256[]"
        }
      ],
      "name": "stackTokenBatch",
      "outputs": [
        {
          "internalType": "bool",
          "name": "",
          "type": "bool"
        }
      ],
      "stateMutability": "nonpayable",
      "type": "function"
    },
    {
      "inputs": [
        {
          "internalType": "address",
          "name": "_token",
          "type": "address"
        }
      ],
      "name": "startStacking",
      "outputs": [
        {
          "internalType": "uint256",
          "name": "",
          "type": "uint256"
        }
      ],
      "stateMutability": "nonpayable",
      "type": "function"
    },
    {
      "inputs": [
        {
          "internalType": "address",
          "name": "_token",
          "type": "address"
        },
        {
          "internalType": "address",
          "name": "_whom",
          "type": "address"
        }
      ],
      "name": "getStackBalance",
      "outputs": [
        {
          "internalType": "uint256",
          "name": "",
          "type": "uint256"
        }
      ],
      "stateMutability": "view",
      "type": "function",
      "constant": true
    },
    {
      "inputs": [
        {
          "internalType": "address",
          "name": "_token",
          "type": "address"
        }
      ],
      "name": "claimOnlyRewards",
      "outputs": [
        {
          "internalType": "bool",
          "name": "",
          "type": "bool"
        }
      ],
      "stateMutability": "nonpayable",
      "type": "function"
    },
    {
      "inputs": [
        {
          "internalType": "address",
          "name": "_token",
          "type": "address"
        }
      ],
      "name": "unlockTokenFromStack",
      "outputs": [
        {
          "internalType": "bool",
          "name": "",
          "type": "bool"
        }
      ],
      "stateMutability": "nonpayable",
      "type": "function"
    },
    {
      "inputs": [
        {
          "internalType": "address",
          "name": "_token",
          "type": "address"
        },
        {
          "internalType": "uint256",
          "name": "_percent",
          "type": "uint256"
        }
      ],
      "name": "setAnnualMintPercentage",
      "outputs": [
        {
          "internalType": "bool",
          "name": "",
          "type": "bool"
        }
      ],
      "stateMutability": "nonpayable",
      "type": "function"
    },
    {
      "inputs": [],
      "name": "acceptMintingOwnerShip",
      "outputs": [
        {
          "internalType": "bool",
          "name": "",
          "type": "bool"
        }
      ],
      "stateMutability": "nonpayable",
      "type": "function"
    },
    {
      "inputs": [],
      "name": "availabletokens",
      "outputs": [
        {
          "internalType": "uint256",
          "name": "",
          "type": "uint256"
        }
      ],
      "stateMutability": "view",
      "type": "function",
      "constant": true
    }
  ],
  "bytecode": "0x60806040526040518060400160405280600481526020017f4e4558410000000000000000000000000000000000000000000000000000000081525060049080519060200190620000519291906200040c565b506040518060400160405280600581526020017f4e45584154000000000000000000000000000000000000000000000000000000815250600590805190602001906200009f9291906200040c565b506012600655600654600a0a6117700260075560075460085533600960006101000a81548173ffffffffffffffffffffffffffffffffffffffff021916908373ffffffffffffffffffffffffffffffffffffffff1602179055506001600b55600a60195568f3f20b8dfa69d00000601a55611388601b553480156200012357600080fd5b506040516200590038038062005900833981810160405260208110156200014957600080fd5b81019080805160405193929190846401000000008211156200016a57600080fd5b838201915060208201858111156200018157600080fd5b82518660208202830111640100000000821117156200019f57600080fd5b8083526020830192505050908051906020019060200280838360005b83811015620001d8578082015181840152602081019050620001bb565b50505050905001604052505050620001f6336200034e60201b60201c565b600854600260003373ffffffffffffffffffffffffffffffffffffffff1673ffffffffffffffffffffffffffffffffffffffff1681526020019081526020016000208190555060008090505b81518160ff16101562000346576001600c6000848460ff16815181106200026557fe5b602002602001015173ffffffffffffffffffffffffffffffffffffffff1673ffffffffffffffffffffffffffffffffffffffff16815260200190815260200160002060006101000a81548160ff021916908315150217905550600d828260ff1681518110620002d057fe5b60200260200101519080600181540180825580915050600190039060005260206000200160009091909190916101000a81548173ffffffffffffffffffffffffffffffffffffffff021916908373ffffffffffffffffffffffffffffffffffffffff160217905550808060010191505062000242565b5050620004bb565b8073ffffffffffffffffffffffffffffffffffffffff166000809054906101000a900473ffffffffffffffffffffffffffffffffffffffff1673ffffffffffffffffffffffffffffffffffffffff167f8be0079c531659141344cd1fd0a4f28419497f9722a3daafe3b4186f6b6457e060405160405180910390a3806000806101000a81548173ffffffffffffffffffffffffffffffffffffffff021916908373ffffffffffffffffffffffffffffffffffffffff16021790555050565b828054600181600116156101000203166002900490600052602060002090601f016020900481019282601f106200044f57805160ff191683800117855562000480565b8280016001018555821562000480579182015b828111156200047f57825182559160200191906001019062000462565b5b5090506200048f919062000493565b5090565b620004b891905b80821115620004b45760008160009055506001016200049a565b5090565b90565b61543580620004cb6000396000f3fe608060405234801561001057600080fd5b50600436106103425760003560e01c806389c21b53116101b8578063b9d1d49b11610104578063dd62ed3e116100a2578063f2fde38b1161007c578063f2fde38b146113f8578063f32aeaaf1461143c578063fd25314c146114be578063fd4004751461151a57610342565b8063dd62ed3e146112a2578063e185c9191461131a578063e6ade0d51461138057610342565b8063cb9199a2116100de578063cb9199a21461112c578063d4ee1d9014611184578063d85c4c17146111ce578063dc5de0ba1461122a57610342565b8063b9d1d49b146110aa578063c634d032146110c8578063ca6263d31461110e57610342565b8063976565c111610171578063a9059cbb1161014b578063a9059cbb14610f4c578063aa0e28d714610fb2578063add5d81514610fd0578063aee2bd6a1461103257610342565b8063976565c114610e44578063a0bcb8b414610e8e578063a0bf674c14610f0657610342565b806389c21b5314610bfd5780638b328f7414610c815780638da5cb5b14610cfd57806394739d5914610d47578063958dec8514610da357806395d89b4114610dc157610342565b806349f5ee7e1161029257806379ba5097116102305780637cbbd12f1161020a5780637cbbd12f146109c05780637e9d597114610aa65780637f8bb1aa14610b225780638963534714610ba557610342565b806379ba5097146108ca5780637b151162146108ec5780637b705e581461096857610342565b80635c49d2cb1161026c5780635c49d2cb146107c45780636b9e81fc1461080e5780636e74fb421461085457806370a082311461087257610342565b806349f5ee7e146106985780634a7a7820146106de5780634f64b2be1461075657610342565b8063273726cd116102ff578063313ce567116102d9578063313ce56714610620578063324536eb1461063e578063358aac131461065c5780633ee813031461067a57610342565b8063273726cd1461055257806327e235e3146105705780632e92a6cb146105c857610342565b806306fdde0314610347578063095ea7b3146103ca5780631502c2dc1461043057806318160ddd146104525780631b9be3de1461047057806323b872dd146104cc575b600080fd5b61034f61159d565b6040518080602001828103825283818151815260200191508051906020019080838360005b8381101561038f578082015181840152602081019050610374565b50505050905090810190601f1680156103bc5780820380516001836020036101000a031916815260200191505b509250505060405180910390f35b610416600480360360408110156103e057600080fd5b81019080803573ffffffffffffffffffffffffffffffffffffffff1690602001909291908035906020019092919050505061163b565b604051808215151515815260200191505060405180910390f35b61043861172d565b604051808215151515815260200191505060405180910390f35b61045a6118a4565b6040518082815260200191505060405180910390f35b6104b26004803603602081101561048657600080fd5b81019080803573ffffffffffffffffffffffffffffffffffffffff1690602001909291905050506118ae565b604051808215151515815260200191505060405180910390f35b610538600480360360608110156104e257600080fd5b81019080803573ffffffffffffffffffffffffffffffffffffffff169060200190929190803573ffffffffffffffffffffffffffffffffffffffff169060200190929190803590602001909291905050506118ce565b604051808215151515815260200191505060405180910390f35b61055a611ce6565b6040518082815260200191505060405180910390f35b6105b26004803603602081101561058657600080fd5b81019080803573ffffffffffffffffffffffffffffffffffffffff169060200190929190505050611cec565b6040518082815260200191505060405180910390f35b61060a600480360360208110156105de57600080fd5b81019080803573ffffffffffffffffffffffffffffffffffffffff169060200190929190505050611d04565b6040518082815260200191505060405180910390f35b610628611d1c565b6040518082815260200191505060405180910390f35b610646611d22565b6040518082815260200191505060405180910390f35b610664611d28565b6040518082815260200191505060405180910390f35b610682611d2e565b6040518082815260200191505060405180910390f35b6106c4600480360360208110156106ae57600080fd5b8101908080359060200190929190505050611d3a565b604051808215151515815260200191505060405180910390f35b610740600480360360408110156106f457600080fd5b81019080803573ffffffffffffffffffffffffffffffffffffffff169060200190929190803573ffffffffffffffffffffffffffffffffffffffff169060200190929190505050611e79565b6040518082815260200191505060405180910390f35b6107826004803603602081101561076c57600080fd5b8101908080359060200190929190505050611f17565b604051808273ffffffffffffffffffffffffffffffffffffffff1673ffffffffffffffffffffffffffffffffffffffff16815260200191505060405180910390f35b6107cc611f53565b604051808273ffffffffffffffffffffffffffffffffffffffff1673ffffffffffffffffffffffffffffffffffffffff16815260200191505060405180910390f35b61083a6004803603602081101561082457600080fd5b8101908080359060200190929190505050611f79565b604051808215151515815260200191505060405180910390f35b61085c6120b8565b6040518082815260200191505060405180910390f35b6108b46004803603602081101561088857600080fd5b81019080803573ffffffffffffffffffffffffffffffffffffffff1690602001909291905050506120c5565b6040518082815260200191505060405180910390f35b6108d261210e565b604051808215151515815260200191505060405180910390f35b61094e6004803603604081101561090257600080fd5b81019080803573ffffffffffffffffffffffffffffffffffffffff169060200190929190803573ffffffffffffffffffffffffffffffffffffffff16906020019092919050505061231b565b604051808215151515815260200191505060405180910390f35b6109aa6004803603602081101561097e57600080fd5b81019080803573ffffffffffffffffffffffffffffffffffffffff16906020019092919050505061245c565b6040518082815260200191505060405180910390f35b610a8c600480360360408110156109d657600080fd5b81019080803590602001906401000000008111156109f357600080fd5b820183602082011115610a0557600080fd5b80359060200191846020830284011164010000000083111715610a2757600080fd5b909192939192939080359060200190640100000000811115610a4857600080fd5b820183602082011115610a5a57600080fd5b80359060200191846020830284011164010000000083111715610a7c57600080fd5b9091929391929390505050612474565b604051808215151515815260200191505060405180910390f35b610b0860048036036040811015610abc57600080fd5b81019080803573ffffffffffffffffffffffffffffffffffffffff169060200190929190803573ffffffffffffffffffffffffffffffffffffffff1690602001909291905050506124e6565b604051808215151515815260200191505060405180910390f35b610b2a612515565b6040518080602001828103825283818151815260200191508051906020019080838360005b83811015610b6a578082015181840152602081019050610b4f565b50505050905090810190601f168015610b975780820380516001836020036101000a031916815260200191505b509250505060405180910390f35b610be760048036036020811015610bbb57600080fd5b81019080803573ffffffffffffffffffffffffffffffffffffffff1690602001909291905050506125b7565b6040518082815260200191505060405180910390f35b610c3f60048036036020811015610c1357600080fd5b81019080803573ffffffffffffffffffffffffffffffffffffffff169060200190929190505050612a2e565b604051808273ffffffffffffffffffffffffffffffffffffffff1673ffffffffffffffffffffffffffffffffffffffff16815260200191505060405180910390f35b610ce360048036036040811015610c9757600080fd5b81019080803573ffffffffffffffffffffffffffffffffffffffff169060200190929190803573ffffffffffffffffffffffffffffffffffffffff169060200190929190505050612a61565b604051808215151515815260200191505060405180910390f35b610d05613011565b604051808273ffffffffffffffffffffffffffffffffffffffff1673ffffffffffffffffffffffffffffffffffffffff16815260200191505060405180910390f35b610d8960048036036020811015610d5d57600080fd5b81019080803573ffffffffffffffffffffffffffffffffffffffff169060200190929190505050613036565b604051808215151515815260200191505060405180910390f35b610dab613272565b6040518082815260200191505060405180910390f35b610dc9613278565b6040518080602001828103825283818151815260200191508051906020019080838360005b83811015610e09578082015181840152602081019050610dee565b50505050905090810190601f168015610e365780820380516001836020036101000a031916815260200191505b509250505060405180910390f35b610e4c613316565b604051808273ffffffffffffffffffffffffffffffffffffffff1673ffffffffffffffffffffffffffffffffffffffff16815260200191505060405180910390f35b610ef060048036036040811015610ea457600080fd5b81019080803573ffffffffffffffffffffffffffffffffffffffff169060200190929190803573ffffffffffffffffffffffffffffffffffffffff16906020019092919050505061333c565b6040518082815260200191505060405180910390f35b610f3260048036036020811015610f1c57600080fd5b8101908080359060200190929190505050613361565b604051808215151515815260200191505060405180910390f35b610f9860048036036040811015610f6257600080fd5b81019080803573ffffffffffffffffffffffffffffffffffffffff169060200190929190803590602001909291905050506134a0565b604051808215151515815260200191505060405180910390f35b610fba613693565b6040518082815260200191505060405180910390f35b61101c60048036036040811015610fe657600080fd5b81019080803573ffffffffffffffffffffffffffffffffffffffff1690602001909291908035906020019092919050505061369a565b6040518082815260200191505060405180910390f35b6110686004803603604081101561104857600080fd5b8101908080359060200190929190803590602001909291905050506136bf565b604051808273ffffffffffffffffffffffffffffffffffffffff1673ffffffffffffffffffffffffffffffffffffffff16815260200191505060405180910390f35b6110b261370e565b6040518082815260200191505060405180910390f35b6110f4600480360360208110156110de57600080fd5b8101908080359060200190929190505050613714565b604051808215151515815260200191505060405180910390f35b611116613835565b6040518082815260200191505060405180910390f35b61116e6004803603602081101561114257600080fd5b81019080803573ffffffffffffffffffffffffffffffffffffffff16906020019092919050505061383b565b6040518082815260200191505060405180910390f35b61118c613853565b604051808273ffffffffffffffffffffffffffffffffffffffff1673ffffffffffffffffffffffffffffffffffffffff16815260200191505060405180910390f35b611210600480360360208110156111e457600080fd5b81019080803573ffffffffffffffffffffffffffffffffffffffff169060200190929190505050613879565b604051808215151515815260200191505060405180910390f35b61128c6004803603604081101561124057600080fd5b81019080803573ffffffffffffffffffffffffffffffffffffffff169060200190929190803573ffffffffffffffffffffffffffffffffffffffff169060200190929190505050613c76565b6040518082815260200191505060405180910390f35b611304600480360360408110156112b857600080fd5b81019080803573ffffffffffffffffffffffffffffffffffffffff169060200190929190803573ffffffffffffffffffffffffffffffffffffffff169060200190929190505050613c9b565b6040518082815260200191505060405180910390f35b6113666004803603604081101561133057600080fd5b81019080803573ffffffffffffffffffffffffffffffffffffffff16906020019092919080359060200190929190505050613d22565b604051808215151515815260200191505060405180910390f35b6113e26004803603604081101561139657600080fd5b81019080803573ffffffffffffffffffffffffffffffffffffffff169060200190929190803573ffffffffffffffffffffffffffffffffffffffff169060200190929190505050613d6e565b6040518082815260200191505060405180910390f35b61143a6004803603602081101561140e57600080fd5b81019080803573ffffffffffffffffffffffffffffffffffffffff169060200190929190505050613d93565b005b6114a86004803603606081101561145257600080fd5b81019080803573ffffffffffffffffffffffffffffffffffffffff169060200190929190803573ffffffffffffffffffffffffffffffffffffffff16906020019092919080359060200190929190505050614014565b6040518082815260200191505060405180910390f35b611500600480360360208110156114d457600080fd5b81019080803573ffffffffffffffffffffffffffffffffffffffff169060200190929190505050614046565b604051808215151515815260200191505060405180910390f35b611522614092565b6040518080602001828103825283818151815260200191508051906020019080838360005b83811015611562578082015181840152602081019050611547565b50505050905090810190601f16801561158f5780820380516001836020036101000a031916815260200191505b509250505060405180910390f35b60048054600181600116156101000203166002900480601f0160208091040260200160405190810160405280929190818152602001828054600181600116156101000203166002900480156116335780601f1061160857610100808354040283529160200191611633565b820191906000526020600020905b81548152906001019060200180831161161657829003601f168201915b505050505081565b600081600360003373ffffffffffffffffffffffffffffffffffffffff1673ffffffffffffffffffffffffffffffffffffffff16815260200190815260200160002060008573ffffffffffffffffffffffffffffffffffffffff1673ffffffffffffffffffffffffffffffffffffffff168152602001908152602001600020819055508273ffffffffffffffffffffffffffffffffffffffff163373ffffffffffffffffffffffffffffffffffffffff167f8c5be1e5ebec7d5bd14f71427d1e84f3dd0314c0f7b2291e5b200ac8c7c3b925846040518082815260200191505060405180910390a36001905092915050565b60003373ffffffffffffffffffffffffffffffffffffffff166000809054906101000a900473ffffffffffffffffffffffffffffffffffffffff1673ffffffffffffffffffffffffffffffffffffffff16146040518060400160405280601b81526020017f4552525f415554484f52495a45445f414444524553535f4f4e4c5900000000008152509061185b576040517f08c379a00000000000000000000000000000000000000000000000000000000081526004018080602001828103825283818151815260200191508051906020019080838360005b83811015611820578082015181840152602081019050611805565b50505050905090810190601f16801561184d5780820380516001836020036101000a031916815260200191505b509250505060405180910390fd5b5030600a60006101000a81548173ffffffffffffffffffffffffffffffffffffffff021916908373ffffffffffffffffffffffffffffffffffffffff1602179055506001905090565b6000600754905090565b600c6020528060005260406000206000915054906101000a900460ff1681565b600081600260008673ffffffffffffffffffffffffffffffffffffffff1673ffffffffffffffffffffffffffffffffffffffff168152602001908152602001600020541015611968576040517f08c379a00000000000000000000000000000000000000000000000000000000081526004018080602001828103825260268152602001806153b76026913960400191505060405180910390fd5b81600360008673ffffffffffffffffffffffffffffffffffffffff1673ffffffffffffffffffffffffffffffffffffffff16815260200190815260200160002060003373ffffffffffffffffffffffffffffffffffffffff1673ffffffffffffffffffffffffffffffffffffffff168152602001908152602001600020541015611a3d576040517f08c379a00000000000000000000000000000000000000000000000000000000081526004018080602001828103825260238152602001806153dd6023913960400191505060405180910390fd5b611a8f82600260008773ffffffffffffffffffffffffffffffffffffffff1673ffffffffffffffffffffffffffffffffffffffff1681526020019081526020016000205461413490919063ffffffff16565b600260008673ffffffffffffffffffffffffffffffffffffffff1673ffffffffffffffffffffffffffffffffffffffff16815260200190815260200160002081905550611b2482600260008673ffffffffffffffffffffffffffffffffffffffff1673ffffffffffffffffffffffffffffffffffffffff1681526020019081526020016000205461417e90919063ffffffff16565b600260008573ffffffffffffffffffffffffffffffffffffffff1673ffffffffffffffffffffffffffffffffffffffff16815260200190815260200160002081905550611bf682600360008773ffffffffffffffffffffffffffffffffffffffff1673ffffffffffffffffffffffffffffffffffffffff16815260200190815260200160002060003373ffffffffffffffffffffffffffffffffffffffff1673ffffffffffffffffffffffffffffffffffffffff1681526020019081526020016000205461413490919063ffffffff16565b600360008673ffffffffffffffffffffffffffffffffffffffff1673ffffffffffffffffffffffffffffffffffffffff16815260200190815260200160002060003373ffffffffffffffffffffffffffffffffffffffff1673ffffffffffffffffffffffffffffffffffffffff168152602001908152602001600020819055508273ffffffffffffffffffffffffffffffffffffffff168473ffffffffffffffffffffffffffffffffffffffff167fddf252ad1be2c89b69c2b068fc378daa952ba7f163c4a11628f55a4df523b3ef846040518082815260200191505060405180910390a3600190509392505050565b60085481565b60026020528060005260406000206000915090505481565b60136020528060005260406000206000915090505481565b60065481565b60075481565b601b5481565b670de0b6b3a764000081565b60003373ffffffffffffffffffffffffffffffffffffffff166000809054906101000a900473ffffffffffffffffffffffffffffffffffffffff1673ffffffffffffffffffffffffffffffffffffffff16146040518060400160405280601b81526020017f4552525f415554484f52495a45445f414444524553535f4f4e4c59000000000081525090611e68576040517f08c379a00000000000000000000000000000000000000000000000000000000081526004018080602001828103825283818151815260200191508051906020019080838360005b83811015611e2d578082015181840152602081019050611e12565b50505050905090810190601f168015611e5a5780820380516001836020036101000a031916815260200191505b509250505060405180910390fd5b5081601a8190555060019050919050565b600080611e868484614206565b9050611f0e601060008673ffffffffffffffffffffffffffffffffffffffff1673ffffffffffffffffffffffffffffffffffffffff16815260200190815260200160002060008573ffffffffffffffffffffffffffffffffffffffff1673ffffffffffffffffffffffffffffffffffffffff16815260200190815260200160002054826143f0565b91505092915050565b600d8181548110611f2457fe5b906000526020600020016000915054906101000a900473ffffffffffffffffffffffffffffffffffffffff1681565b600960009054906101000a900473ffffffffffffffffffffffffffffffffffffffff1681565b60003373ffffffffffffffffffffffffffffffffffffffff166000809054906101000a900473ffffffffffffffffffffffffffffffffffffffff1673ffffffffffffffffffffffffffffffffffffffff16146040518060400160405280601b81526020017f4552525f415554484f52495a45445f414444524553535f4f4e4c590000000000815250906120a7576040517f08c379a00000000000000000000000000000000000000000000000000000000081526004018080602001828103825283818151815260200191508051906020019080838360005b8381101561206c578082015181840152602081019050612051565b50505050905090810190601f1680156120995780820380516001836020036101000a031916815260200191505b509250505060405180910390fd5b508160198190555060019050919050565b6000600d80549050905090565b6000600260008373ffffffffffffffffffffffffffffffffffffffff1673ffffffffffffffffffffffffffffffffffffffff168152602001908152602001600020549050919050565b6000600160009054906101000a900473ffffffffffffffffffffffffffffffffffffffff1673ffffffffffffffffffffffffffffffffffffffff163373ffffffffffffffffffffffffffffffffffffffff16146121d3576040517f08c379a00000000000000000000000000000000000000000000000000000000081526004018080602001828103825260128152602001807f4552525f4f4e4c595f4e45575f4f574e4552000000000000000000000000000081525060200191505060405180910390fd5b600160009054906101000a900473ffffffffffffffffffffffffffffffffffffffff166000806101000a81548173ffffffffffffffffffffffffffffffffffffffff021916908373ffffffffffffffffffffffffffffffffffffffff160217905550600160009054906101000a900473ffffffffffffffffffffffffffffffffffffffff1673ffffffffffffffffffffffffffffffffffffffff166000809054906101000a900473ffffffffffffffffffffffffffffffffffffffff1673ffffffffffffffffffffffffffffffffffffffff167f8be0079c531659141344cd1fd0a4f28419497f9722a3daafe3b4186f6b6457e060405160405180910390a36000600160006101000a81548173ffffffffffffffffffffffffffffffffffffffff021916908373ffffffffffffffffffffffffffffffffffffffff1602179055506001905090565b60003373ffffffffffffffffffffffffffffffffffffffff166000809054906101000a900473ffffffffffffffffffffffffffffffffffffffff1673ffffffffffffffffffffffffffffffffffffffff16146040518060400160405280601b81526020017f4552525f415554484f52495a45445f414444524553535f4f4e4c59000000000081525090612449576040517f08c379a00000000000000000000000000000000000000000000000000000000081526004018080602001828103825283818151815260200191508051906020019080838360005b8381101561240e5780820151818401526020810190506123f3565b50505050905090810190601f16801561243b5780820380516001836020036101000a031916815260200191505b509250505060405180910390fd5b506124548383614478565b905092915050565b600f6020528060005260406000206000915090505481565b600080600090505b858590508110156124d9576124cb86868381811061249657fe5b9050602002013573ffffffffffffffffffffffffffffffffffffffff168585848181106124bf57fe5b9050602002013561488a565b50808060010191505061247c565b5060019050949350505050565b60156020528160005260406000206020528060005260406000206000915091509054906101000a900460ff1681565b606060048054600181600116156101000203166002900480601f0160208091040260200160405190810160405280929190818152602001828054600181600116156101000203166002900480156125ad5780601f10612582576101008083540402835291602001916125ad565b820191906000526020600020905b81548152906001019060200180831161259057829003601f168201915b5050505050905090565b60003373ffffffffffffffffffffffffffffffffffffffff166000809054906101000a900473ffffffffffffffffffffffffffffffffffffffff1673ffffffffffffffffffffffffffffffffffffffff16146040518060400160405280601b81526020017f4552525f415554484f52495a45445f414444524553535f4f4e4c590000000000815250906126e5576040517f08c379a00000000000000000000000000000000000000000000000000000000081526004018080602001828103825283818151815260200191508051906020019080838360005b838110156126aa57808201518184015260208101905061268f565b50505050905090810190601f1680156126d75780820380516001836020036101000a031916815260200191505b509250505060405180910390fd5b506000600e60008473ffffffffffffffffffffffffffffffffffffffff1673ffffffffffffffffffffffffffffffffffffffff168152602001908152602001600020541161279b576040517f08c379a000000000000000000000000000000000000000000000000000000000815260040180806020018281038252600f8152602001807f4552525f4e4f5f535441434b494e47000000000000000000000000000000000081525060200191505060405180910390fd5b6000612831612828600e60008673ffffffffffffffffffffffffffffffffffffffff1673ffffffffffffffffffffffffffffffffffffffff16815260200190815260200160002054601360008773ffffffffffffffffffffffffffffffffffffffff1673ffffffffffffffffffffffffffffffffffffffff16815260200190815260200160002054614f45565b6201d4c0614fcb565b90508273ffffffffffffffffffffffffffffffffffffffff1663c634d032826040518263ffffffff1660e01b815260040180828152602001915050602060405180830381600087803b15801561288657600080fd5b505af115801561289a573d6000803e3d6000fd5b505050506040513d60208110156128b057600080fd5b810190808051906020019092919050505050600061292a6128e5836128e0670de0b6b3a7640000620f4240614f45565b614f45565b600e60008773ffffffffffffffffffffffffffffffffffffffff1673ffffffffffffffffffffffffffffffffffffffff16815260200190815260200160002054614fcb565b9050612975600e60008673ffffffffffffffffffffffffffffffffffffffff1673ffffffffffffffffffffffffffffffffffffffff16815260200190815260200160002054836143f0565b600e60008673ffffffffffffffffffffffffffffffffffffffff1673ffffffffffffffffffffffffffffffffffffffff1681526020019081526020016000208190555080601260008673ffffffffffffffffffffffffffffffffffffffff1673ffffffffffffffffffffffffffffffffffffffff1681526020019081526020016000206000600b54815260200190815260200160002081905550612a1c600b5460016143f0565b600b81905550600b5492505050919050565b60176020528060005260406000206000915054906101000a900473ffffffffffffffffffffffffffffffffffffffff1681565b60003373ffffffffffffffffffffffffffffffffffffffff166000809054906101000a900473ffffffffffffffffffffffffffffffffffffffff1673ffffffffffffffffffffffffffffffffffffffff16146040518060400160405280601b81526020017f4552525f415554484f52495a45445f414444524553535f4f4e4c59000000000081525090612b8f576040517f08c379a00000000000000000000000000000000000000000000000000000000081526004018080602001828103825283818151815260200191508051906020019080838360005b83811015612b54578082015181840152602081019050612b39565b50505050905090810190601f168015612b815780820380516001836020036101000a031916815260200191505b509250505060405180910390fd5b506019546018805490501115612c0d576040517f08c379a00000000000000000000000000000000000000000000000000000000081526004018080602001828103825260158152602001807f4552525f5041594e4f44455f4c4953545f46554c4c000000000000000000000081525060200191505060405180910390fd5b601a54600260008473ffffffffffffffffffffffffffffffffffffffff1673ffffffffffffffffffffffffffffffffffffffff168152602001908152602001600020541015612cc4576040517f08c379a000000000000000000000000000000000000000000000000000000000815260040180806020018281038252601b8152602001807f4552525f5041594e4f44455f4d494e494d554d5f42414c414e4345000000000081525060200191505060405180910390fd5b60001515601560008573ffffffffffffffffffffffffffffffffffffffff1673ffffffffffffffffffffffffffffffffffffffff16815260200190815260200160002060008473ffffffffffffffffffffffffffffffffffffffff1673ffffffffffffffffffffffffffffffffffffffff16815260200190815260200160002060009054906101000a900460ff16151514612dc7576040517f08c379a000000000000000000000000000000000000000000000000000000000815260040180806020018281038252601b8152602001807f4552525f414c52454144595f494e5f5041594e4f44455f4c495354000000000081525060200191505060405180910390fd5b6001601560008573ffffffffffffffffffffffffffffffffffffffff1673ffffffffffffffffffffffffffffffffffffffff16815260200190815260200160002060008473ffffffffffffffffffffffffffffffffffffffff1673ffffffffffffffffffffffffffffffffffffffff16815260200190815260200160002060006101000a81548160ff021916908315150217905550601880549050601660008573ffffffffffffffffffffffffffffffffffffffff1673ffffffffffffffffffffffffffffffffffffffff16815260200190815260200160002060008473ffffffffffffffffffffffffffffffffffffffff1673ffffffffffffffffffffffffffffffffffffffff16815260200190815260200160002081905550601860405180604001604052808573ffffffffffffffffffffffffffffffffffffffff1673ffffffffffffffffffffffffffffffffffffffff1681526020018473ffffffffffffffffffffffffffffffffffffffff1673ffffffffffffffffffffffffffffffffffffffff168152509080600181540180825580915050600190039060005260206000209060020201600090919091909150906002612f889291906152a5565b5081601760008573ffffffffffffffffffffffffffffffffffffffff1673ffffffffffffffffffffffffffffffffffffffff16815260200190815260200160002060006101000a81548173ffffffffffffffffffffffffffffffffffffffff021916908373ffffffffffffffffffffffffffffffffffffffff1602179055506001905092915050565b6000809054906101000a900473ffffffffffffffffffffffffffffffffffffffff1681565b6000806130438333614206565b90508273ffffffffffffffffffffffffffffffffffffffff1663a9059cbb33836040518363ffffffff1660e01b8152600401808373ffffffffffffffffffffffffffffffffffffffff1673ffffffffffffffffffffffffffffffffffffffff16815260200182815260200192505050602060405180830381600087803b1580156130cc57600080fd5b505af11580156130e0573d6000803e3d6000fd5b505050506040513d60208110156130f657600080fd5b810190808051906020019092919050505050613151600e60008573ffffffffffffffffffffffffffffffffffffffff1673ffffffffffffffffffffffffffffffffffffffff1681526020019081526020016000205482615015565b600e60008573ffffffffffffffffffffffffffffffffffffffff1673ffffffffffffffffffffffffffffffffffffffff16815260200190815260200160002081905550600b54601160008573ffffffffffffffffffffffffffffffffffffffff1673ffffffffffffffffffffffffffffffffffffffff16815260200190815260200160002060003373ffffffffffffffffffffffffffffffffffffffff1673ffffffffffffffffffffffffffffffffffffffff168152602001908152602001600020819055503373ffffffffffffffffffffffffffffffffffffffff16600b547f0dc4459e24ebfc0af703731f14f49f25d93986304f9ddb82473206c071f08716836040518082815260200191505060405180910390a36001915050919050565b600b5481565b60058054600181600116156101000203166002900480601f01602080910402602001604051908101604052809291908181526020018280546001816001161561010002031660029004801561330e5780601f106132e35761010080835404028352916020019161330e565b820191906000526020600020905b8154815290600101906020018083116132f157829003601f168201915b505050505081565b600a60009054906101000a900473ffffffffffffffffffffffffffffffffffffffff1681565b6010602052816000526040600020602052806000526040600020600091509150505481565b60003373ffffffffffffffffffffffffffffffffffffffff166000809054906101000a900473ffffffffffffffffffffffffffffffffffffffff1673ffffffffffffffffffffffffffffffffffffffff16146040518060400160405280601b81526020017f4552525f415554484f52495a45445f414444524553535f4f4e4c5900000000008152509061348f576040517f08c379a00000000000000000000000000000000000000000000000000000000081526004018080602001828103825283818151815260200191508051906020019080838360005b83811015613454578082015181840152602081019050613439565b50505050905090810190601f1680156134815780820380516001836020036101000a031916815260200191505b509250505060405180910390fd5b5081601b8190555060019050919050565b600081600260003373ffffffffffffffffffffffffffffffffffffffff1673ffffffffffffffffffffffffffffffffffffffff16815260200190815260200160002054101580156134f15750600082115b6134fa57600080fd5b61354c82600260003373ffffffffffffffffffffffffffffffffffffffff1673ffffffffffffffffffffffffffffffffffffffff1681526020019081526020016000205461413490919063ffffffff16565b600260003373ffffffffffffffffffffffffffffffffffffffff1673ffffffffffffffffffffffffffffffffffffffff168152602001908152602001600020819055506135e182600260008673ffffffffffffffffffffffffffffffffffffffff1673ffffffffffffffffffffffffffffffffffffffff1681526020019081526020016000205461417e90919063ffffffff16565b600260008573ffffffffffffffffffffffffffffffffffffffff1673ffffffffffffffffffffffffffffffffffffffff168152602001908152602001600020819055508273ffffffffffffffffffffffffffffffffffffffff163373ffffffffffffffffffffffffffffffffffffffff167fddf252ad1be2c89b69c2b068fc378daa952ba7f163c4a11628f55a4df523b3ef846040518082815260200191505060405180910390a36001905092915050565b620f424081565b6012602052816000526040600020602052806000526040600020600091509150505481565b601882815481106136cc57fe5b906000526020600020906002020181600281106136e557fe5b016000915091509054906101000a900473ffffffffffffffffffffffffffffffffffffffff1681565b601a5481565b600061372b8260075461417e90919063ffffffff16565b60078190555061378382600260003373ffffffffffffffffffffffffffffffffffffffff1673ffffffffffffffffffffffffffffffffffffffff1681526020019081526020016000205461417e90919063ffffffff16565b600260003373ffffffffffffffffffffffffffffffffffffffff1673ffffffffffffffffffffffffffffffffffffffff168152602001908152602001600020819055503373ffffffffffffffffffffffffffffffffffffffff16600073ffffffffffffffffffffffffffffffffffffffff167fddf252ad1be2c89b69c2b068fc378daa952ba7f163c4a11628f55a4df523b3ef846040518082815260200191505060405180910390a360019050919050565b60195481565b600e6020528060005260406000206000915090505481565b600160009054906101000a900473ffffffffffffffffffffffffffffffffffffffff1681565b600080600e60008473ffffffffffffffffffffffffffffffffffffffff1673ffffffffffffffffffffffffffffffffffffffff168152602001908152602001600020541161392f576040517f08c379a000000000000000000000000000000000000000000000000000000000815260040180806020018281038252600e8152602001807f4552525f4e4f5f554e5354414b4500000000000000000000000000000000000081525060200191505060405180910390fd5b600061393b8333614206565b905060006139c5601060008673ffffffffffffffffffffffffffffffffffffffff1673ffffffffffffffffffffffffffffffffffffffff16815260200190815260200160002060003373ffffffffffffffffffffffffffffffffffffffff1673ffffffffffffffffffffffffffffffffffffffff16815260200190815260200160002054836143f0565b90508373ffffffffffffffffffffffffffffffffffffffff1663a9059cbb33836040518363ffffffff1660e01b8152600401808373ffffffffffffffffffffffffffffffffffffffff1673ffffffffffffffffffffffffffffffffffffffff16815260200182815260200192505050602060405180830381600087803b158015613a4e57600080fd5b505af1158015613a62573d6000803e3d6000fd5b505050506040513d6020811015613a7857600080fd5b810190808051906020019092919050505050613ad3600e60008673ffffffffffffffffffffffffffffffffffffffff1673ffffffffffffffffffffffffffffffffffffffff1681526020019081526020016000205482615015565b600e60008673ffffffffffffffffffffffffffffffffffffffff1673ffffffffffffffffffffffffffffffffffffffff168152602001908152602001600020819055506000601060008673ffffffffffffffffffffffffffffffffffffffff1673ffffffffffffffffffffffffffffffffffffffff16815260200190815260200160002060003373ffffffffffffffffffffffffffffffffffffffff1673ffffffffffffffffffffffffffffffffffffffff168152602001908152602001600020819055506000601160008673ffffffffffffffffffffffffffffffffffffffff1673ffffffffffffffffffffffffffffffffffffffff16815260200190815260200160002060003373ffffffffffffffffffffffffffffffffffffffff1673ffffffffffffffffffffffffffffffffffffffff168152602001908152602001600020819055503373ffffffffffffffffffffffffffffffffffffffff16600b547fd90e465b2c8710ca29b1d243d7ca32d71d4f45d3647464f1562cc7618724ea15836040518082815260200191505060405180910390a3600192505050919050565b6016602052816000526040600020602052806000526040600020600091509150505481565b6000600360008473ffffffffffffffffffffffffffffffffffffffff1673ffffffffffffffffffffffffffffffffffffffff16815260200190815260200160002060008373ffffffffffffffffffffffffffffffffffffffff1673ffffffffffffffffffffffffffffffffffffffff16815260200190815260200160002054905092915050565b600081601360008573ffffffffffffffffffffffffffffffffffffffff1673ffffffffffffffffffffffffffffffffffffffff1681526020019081526020016000208190555092915050565b6011602052816000526040600020602052806000526040600020600091509150505481565b80600073ffffffffffffffffffffffffffffffffffffffff168173ffffffffffffffffffffffffffffffffffffffff1614156040518060400160405280601081526020017f4552525f5a45524f5f414444524553530000000000000000000000000000000081525090613ea1576040517f08c379a00000000000000000000000000000000000000000000000000000000081526004018080602001828103825283818151815260200191508051906020019080838360005b83811015613e66578082015181840152602081019050613e4b565b50505050905090810190601f168015613e935780820380516001836020036101000a031916815260200191505b509250505060405180910390fd5b503373ffffffffffffffffffffffffffffffffffffffff166000809054906101000a900473ffffffffffffffffffffffffffffffffffffffff1673ffffffffffffffffffffffffffffffffffffffff16146040518060400160405280601b81526020017f4552525f415554484f52495a45445f414444524553535f4f4e4c59000000000081525090613fce576040517f08c379a00000000000000000000000000000000000000000000000000000000081526004018080602001828103825283818151815260200191508051906020019080838360005b83811015613f93578082015181840152602081019050613f78565b50505050905090810190601f168015613fc05780820380516001836020036101000a031916815260200191505b509250505060405180910390fd5b5081600160006101000a81548173ffffffffffffffffffffffffffffffffffffffff021916908373ffffffffffffffffffffffffffffffffffffffff1602179055505050565b601460205282600052604060002060205281600052604060002060205280600052604060002060009250925050505481565b600081600a60006101000a81548173ffffffffffffffffffffffffffffffffffffffff021916908373ffffffffffffffffffffffffffffffffffffffff16021790555060019050919050565b606060058054600181600116156101000203166002900480601f01602080910402602001604051908101604052809291908181526020018280546001816001161561010002031660029004801561412a5780601f106140ff5761010080835404028352916020019161412a565b820191906000526020600020905b81548152906001019060200180831161410d57829003601f168201915b5050505050905090565b600061417683836040518060400160405280601e81526020017f536166654d6174683a207375627472616374696f6e206f766572666c6f77000081525061505f565b905092915050565b6000808284019050838110156141fc576040517f08c379a000000000000000000000000000000000000000000000000000000000815260040180806020018281038252601b8152602001807f536166654d6174683a206164646974696f6e206f766572666c6f77000000000081525060200191505060405180910390fd5b8091505092915050565b600080601160008573ffffffffffffffffffffffffffffffffffffffff1673ffffffffffffffffffffffffffffffffffffffff16815260200190815260200160002060008473ffffffffffffffffffffffffffffffffffffffff1673ffffffffffffffffffffffffffffffffffffffff1681526020019081526020016000205490506000806000905060008311156143e45760008390505b600b548110156143e25761433f83601460008a73ffffffffffffffffffffffffffffffffffffffff1673ffffffffffffffffffffffffffffffffffffffff16815260200190815260200160002060008973ffffffffffffffffffffffffffffffffffffffff1673ffffffffffffffffffffffffffffffffffffffff1681526020019081526020016000206000848152602001908152602001600020546143f0565b925060006143ba6143a0601260008b73ffffffffffffffffffffffffffffffffffffffff1673ffffffffffffffffffffffffffffffffffffffff16815260200190815260200160002060008581526020019081526020016000205486614f45565b6143b5670de0b6b3a7640000620f4240614f45565b614fcb565b90506143c683826143f0565b92506143d284826143f0565b935050808060010191505061429e565b505b80935050505092915050565b60008082840190508381101561446e576040517f08c379a000000000000000000000000000000000000000000000000000000000815260040180806020018281038252601b8152602001807f536166654d6174683a206164646974696f6e206f766572666c6f77000000000081525060200191505060405180910390fd5b8091505092915050565b6000601560008473ffffffffffffffffffffffffffffffffffffffff1673ffffffffffffffffffffffffffffffffffffffff16815260200190815260200160002060008373ffffffffffffffffffffffffffffffffffffffff1673ffffffffffffffffffffffffffffffffffffffff16815260200190815260200160002060009054906101000a900460ff166040518060400160405280601b81526020017f4552525f415554484f52495a45445f414444524553535f4f4e4c590000000000815250906145e0576040517f08c379a00000000000000000000000000000000000000000000000000000000081526004018080602001828103825283818151815260200191508051906020019080838360005b838110156145a557808201518184015260208101905061458a565b50505050905090810190601f1680156145d25780820380516001836020036101000a031916815260200191505b509250505060405180910390fd5b506000601660008573ffffffffffffffffffffffffffffffffffffffff1673ffffffffffffffffffffffffffffffffffffffff16815260200190815260200160002060008473ffffffffffffffffffffffffffffffffffffffff1673ffffffffffffffffffffffffffffffffffffffff16815260200190815260200160002054905061466a615322565b601861467c6018805490506001615015565b8154811061468657fe5b9060005260206000209060020201600280602002604051908101604052809291908260028015614701576020028201915b8160009054906101000a900473ffffffffffffffffffffffffffffffffffffffff1673ffffffffffffffffffffffffffffffffffffffff16815260200190600101908083116146b7575b50505050509050806018838154811061471657fe5b90600052602060002090600202019060026147329291906152a5565b5081601660008773ffffffffffffffffffffffffffffffffffffffff1673ffffffffffffffffffffffffffffffffffffffff16815260200190815260200160002060008360016002811061478257fe5b602002015173ffffffffffffffffffffffffffffffffffffffff1673ffffffffffffffffffffffffffffffffffffffff16815260200190815260200160002081905550601560008673ffffffffffffffffffffffffffffffffffffffff1673ffffffffffffffffffffffffffffffffffffffff16815260200190815260200160002060008573ffffffffffffffffffffffffffffffffffffffff1673ffffffffffffffffffffffffffffffffffffffff16815260200190815260200160002060006101000a81549060ff0219169055601880548061485c57fe5b6001900381819060005260206000209060020201600061487c9190615344565b905560019250505092915050565b6000600c60008473ffffffffffffffffffffffffffffffffffffffff1673ffffffffffffffffffffffffffffffffffffffff16815260200190815260200160002060009054906101000a900460ff1661494b576040517f08c379a00000000000000000000000000000000000000000000000000000000081526004018080602001828103825260178152602001807f4552525f544f4b454e5f49535f4e4f545f4c495354454400000000000000000081525060200191505060405180910390fd5b614994600e60008573ffffffffffffffffffffffffffffffffffffffff1673ffffffffffffffffffffffffffffffffffffffff16815260200190815260200160002054836143f0565b600e60008573ffffffffffffffffffffffffffffffffffffffff1673ffffffffffffffffffffffffffffffffffffffff168152602001908152602001600020819055508273ffffffffffffffffffffffffffffffffffffffff166323b872dd3330856040518463ffffffff1660e01b8152600401808473ffffffffffffffffffffffffffffffffffffffff1673ffffffffffffffffffffffffffffffffffffffff1681526020018373ffffffffffffffffffffffffffffffffffffffff1673ffffffffffffffffffffffffffffffffffffffff1681526020018281526020019350505050602060405180830381600087803b158015614a9257600080fd5b505af1158015614aa6573d6000803e3d6000fd5b505050506040513d6020811015614abc57600080fd5b810190808051906020019092919050505050614b18600f60008573ffffffffffffffffffffffffffffffffffffffff1673ffffffffffffffffffffffffffffffffffffffff1681526020019081526020016000205460016143f0565b600f60008573ffffffffffffffffffffffffffffffffffffffff1673ffffffffffffffffffffffffffffffffffffffff168152602001908152602001600020819055506000600f60008573ffffffffffffffffffffffffffffffffffffffff1673ffffffffffffffffffffffffffffffffffffffff168152602001908152602001600020549050614c36601460008673ffffffffffffffffffffffffffffffffffffffff1673ffffffffffffffffffffffffffffffffffffffff16815260200190815260200160002060003373ffffffffffffffffffffffffffffffffffffffff1673ffffffffffffffffffffffffffffffffffffffff168152602001908152602001600020600083815260200190815260200160002054846143f0565b601460008673ffffffffffffffffffffffffffffffffffffffff1673ffffffffffffffffffffffffffffffffffffffff16815260200190815260200160002060003373ffffffffffffffffffffffffffffffffffffffff1673ffffffffffffffffffffffffffffffffffffffff168152602001908152602001600020600083815260200190815260200160002081905550614d4d601060008673ffffffffffffffffffffffffffffffffffffffff1673ffffffffffffffffffffffffffffffffffffffff16815260200190815260200160002060003373ffffffffffffffffffffffffffffffffffffffff1673ffffffffffffffffffffffffffffffffffffffff16815260200190815260200160002054846143f0565b601060008673ffffffffffffffffffffffffffffffffffffffff1673ffffffffffffffffffffffffffffffffffffffff16815260200190815260200160002060003373ffffffffffffffffffffffffffffffffffffffff1673ffffffffffffffffffffffffffffffffffffffff168152602001908152602001600020819055506000601160008673ffffffffffffffffffffffffffffffffffffffff1673ffffffffffffffffffffffffffffffffffffffff16815260200190815260200160002060003373ffffffffffffffffffffffffffffffffffffffff1673ffffffffffffffffffffffffffffffffffffffff168152602001908152602001600020541415614ed45780601160008673ffffffffffffffffffffffffffffffffffffffff1673ffffffffffffffffffffffffffffffffffffffff16815260200190815260200160002060003373ffffffffffffffffffffffffffffffffffffffff1673ffffffffffffffffffffffffffffffffffffffff168152602001908152602001600020819055505b3373ffffffffffffffffffffffffffffffffffffffff168473ffffffffffffffffffffffffffffffffffffffff16827ffceead13b1e58eadb181a29ba8e98f9038c51979a474c2554c34078a92149e17866040518082815260200191505060405180910390a4600191505092915050565b600080831415614f585760009050614fc5565b6000828402905082848281614f6957fe5b0414614fc0576040517f08c379a00000000000000000000000000000000000000000000000000000000081526004018080602001828103825260218152602001806153966021913960400191505060405180910390fd5b809150505b92915050565b600061500d83836040518060400160405280601a81526020017f536166654d6174683a206469766973696f6e206279207a65726f00000000000081525061511f565b905092915050565b600061505783836040518060400160405280601e81526020017f536166654d6174683a207375627472616374696f6e206f766572666c6f7700008152506151e5565b905092915050565b600083831115829061510c576040517f08c379a00000000000000000000000000000000000000000000000000000000081526004018080602001828103825283818151815260200191508051906020019080838360005b838110156150d15780820151818401526020810190506150b6565b50505050905090810190601f1680156150fe5780820380516001836020036101000a031916815260200191505b509250505060405180910390fd5b5060008385039050809150509392505050565b600080831182906151cb576040517f08c379a00000000000000000000000000000000000000000000000000000000081526004018080602001828103825283818151815260200191508051906020019080838360005b83811015615190578082015181840152602081019050615175565b50505050905090810190601f1680156151bd5780820380516001836020036101000a031916815260200191505b509250505060405180910390fd5b5060008385816151d757fe5b049050809150509392505050565b6000838311158290615292576040517f08c379a00000000000000000000000000000000000000000000000000000000081526004018080602001828103825283818151815260200191508051906020019080838360005b8381101561525757808201518184015260208101905061523c565b50505050905090810190601f1680156152845780820380516001836020036101000a031916815260200191505b509250505060405180910390fd5b5060008385039050809150509392505050565b8260028101928215615311579160200282015b828111156153105782518260006101000a81548173ffffffffffffffffffffffffffffffffffffffff021916908373ffffffffffffffffffffffffffffffffffffffff160217905550916020019190600101906152b8565b5b50905061531e9190615352565b5090565b6040518060400160405280600290602082028038833980820191505090505090565b506000815560010160009055565b61539291905b8082111561538e57600081816101000a81549073ffffffffffffffffffffffffffffffffffffffff021916905550600101615358565b5090565b9056fe536166654d6174683a206d756c7469706c69636174696f6e206f766572666c6f77546865207370656e6465722073686f756c64206861766520656e6f75676820746f6b656e7320546865206f776e65722073686f756c64206861766520656e6f75676820746f6b656e73a2646970667358221220d20f5cf537c3959fd77bebf71fea3e56798a82920e909933ec14977e5633f0bc64736f6c63430006000033",
  "source": "pragma solidity ^0.6.0;\r\n\r\nimport \"./Ownable.sol\";\r\nimport \"./SafeMath.sol\";\r\nimport \"./Token.sol\";\r\nimport \"./ERC20Interface.sol\";\r\n\r\n\r\ninterface minter{\r\n    \r\n   \r\n    function acceptMintingOwnerShip() external returns (bool);\r\n    function mintToken(uint256 _amount) external returns (bool);\r\n    function transferMintingOwnerShip(address _whom) external returns (bool);\r\n}\r\n\r\n\r\n\r\n\r\ncontract StackStrorage {\r\n    \r\n    uint256 public constant PERCENT_NOMINATOR = 10**6;\r\n    uint256 public constant DECIMAL_NOMINATOR = 10**18;\r\n    \r\n    uint256 public  currentStackId =1;\r\n    \r\n    \r\n    /**\r\n     * @dev check if token is listed \r\n    **/\r\n    mapping(address => bool) public listedToken;\r\n    \r\n    /**\r\n     * @dev list of tokens\r\n    **/\r\n    address[] public tokens;\r\n    \r\n    /**\r\n     * @dev check if token is listed \r\n    **/\r\n    mapping(address => uint256) public totalTokens;\r\n    \r\n    /**\r\n     * @dev token roundId \r\n    **/\r\n    mapping(address => uint256) public tokenRoundId;\r\n    \r\n    \r\n    mapping(address => mapping(address => uint256)) public stackBalance;\r\n    \r\n    \r\n    mapping(address => mapping(address => uint256)) public lastStackClaimed;\r\n    \r\n    \r\n    mapping (address => mapping(uint256 =>uint256)) public dayWiseRatio;\r\n    \r\n    \r\n    mapping (address => uint256) public annualMintPercentage;\r\n\r\n    \r\n    \r\n    /**\r\n     * @dev roundWise user tokens  \r\n    **/\r\n    mapping(address => mapping(address => mapping(uint256 => uint256))) public roundWiseToken;\r\n    \r\n    /**\r\n     * @dev check if address is in paynode\r\n     **/\r\n    mapping(address => mapping(address => bool)) public isPayNoder;\r\n    \r\n\r\n    /**\r\n     * @dev maintain array index for address\r\n     **/\r\n    mapping(address => mapping(address => uint256)) public payNoderIndex;\r\n    \r\n     /**\r\n     * @dev to retrieve paynode according to token\r\n     **/\r\n     mapping(address => address)public tokenPayNode;\r\n    \r\n    event Stack(\r\n        uint256 indexed _roundId,\r\n        address indexed _token,\r\n        address indexed _whom,\r\n        uint256 _amount\r\n    );\r\n    \r\n    event StackClaimed(\r\n        uint256 indexed _roundId,\r\n        address indexed _whom,\r\n        uint256 _amount\r\n    );\r\n\r\n    event UnStack(\r\n        uint256 indexed _roundId,\r\n        address indexed _whom,\r\n        uint256 _amount\r\n    );\r\n    \r\n    event Data(bool);\r\n    \r\n}\r\n\r\nabstract contract Paynodes is Ownable,SafeMath,Token,StackStrorage{\r\n    \r\n     /**\r\n     * @dev check if address is in paynode\r\n   \r\n\r\n    /**\r\n     * @dev list of paynoder\r\n     **/\r\n    address[2][] public payNoders;\r\n\r\n    /**\r\n     * @dev maximum paynoder \r\n    **/\r\n    uint256 public payNoderSlot = 10;\r\n    \r\n    /**\r\n     * @dev minimum balance require for be in paynode\r\n    **/\r\n    uint256 public minimumBalance = 4500 ether;\r\n    \r\n    /**\r\n     * @dev divide by 100 to achive into fraction\r\n     * it is mulitply\r\n    **/\r\n    uint256 public extraMintForPayNodes = 5000;\r\n    \r\n    \r\n    \r\n    /**\r\n     * @dev adding account in paynode \r\n    **/\r\n    function addaccountToPayNode(address _token,address _whom)\r\n        external\r\n        onlyOwner()\r\n        returns (bool)\r\n    {   \r\n        require(payNoders.length <= payNoderSlot ,\"ERR_PAYNODE_LIST_FULL\");\r\n        require(balances[_whom] >= minimumBalance,\"ERR_PAYNODE_MINIMUM_BALANCE\");\r\n        require(isPayNoder[_token][_whom] == false,\"ERR_ALREADY_IN_PAYNODE_LIST\");\r\n        isPayNoder[_token][_whom] = true;\r\n        payNoderIndex[_token][_whom] = payNoders.length;\r\n        payNoders.push([_token,_whom]);\r\n        tokenPayNode[_token] = _whom;\r\n        return true;\r\n    }\r\n    \r\n\r\n    /**\r\n     * @dev remove account from paynode\r\n     **/\r\n    function _removeaccountToPayNode(address _token,address _whom) internal returns (bool) {\r\n        require(isPayNoder[_token][_whom], ERR_AUTHORIZED_ADDRESS_ONLY);\r\n        uint256  _payNoderIndex = payNoderIndex[_token][_whom];\r\n      \r\n        address[2] memory _lastAddress = payNoders[safeSub(payNoders.length,1)];\r\n        payNoders[_payNoderIndex] =_lastAddress ;\r\n        payNoderIndex[_token][_lastAddress[1]] = _payNoderIndex;\r\n        delete isPayNoder[_token][_whom];\r\n        payNoders.pop();\r\n        return true;\r\n    }\r\n\r\n    /**\r\n     * @dev remove account from paynode\r\n     **/\r\n    function removeaccountToPayNode(address _token,address _whom)\r\n        external\r\n        onlyOwner()\r\n        returns (bool)\r\n    {\r\n        return _removeaccountToPayNode(_token,_whom);\r\n    }\r\n\r\n    /**\r\n     * @dev owner can change minimum balance requirement\r\n     **/\r\n    function setMinimumBalanceForPayNoder(uint256 _minimumBalance)\r\n        external\r\n        onlyOwner()\r\n        returns (bool)\r\n    {\r\n        minimumBalance = _minimumBalance;\r\n        return true;\r\n    }\r\n\r\n    /**\r\n     * @dev owner can change extra mint percent for paynoder\r\n     * _extraMintForPayNodes is set in percent with mulitply 100\r\n     * if owner want to set 1.25% then value is 125\r\n     **/\r\n    function setExtraMintingForNodes(uint256 _extraMintForPayNodes)\r\n        external\r\n        onlyOwner()\r\n        returns (bool)\r\n    {\r\n        extraMintForPayNodes = _extraMintForPayNodes;\r\n        return true;\r\n    }\r\n\r\n    /**\r\n     * @dev owner can set paynoder slots\r\n     **/\r\n    function setPayNoderSlot(uint256 _payNoderSlot)\r\n        external\r\n        onlyOwner()\r\n        returns (bool)\r\n    {\r\n        payNoderSlot = _payNoderSlot;\r\n        return true;\r\n    }\r\n\r\n\r\n}\r\n\r\n\r\ncontract staking is Paynodes {\r\n    \r\n    constructor(address[] memory _token) public {\r\n        for(uint8 i = 0; i < _token.length; i++){\r\n            listedToken[_token[i]] = true;\r\n          \r\n            tokens.push(_token[i]);\r\n        }\r\n    }\r\n    \r\n    \r\n    function stackToken(address _token,uint256 _amount) internal returns(bool){\r\n        \r\n        require(listedToken[_token],\"ERR_TOKEN_IS_NOT_LISTED\");\r\n        \r\n        totalTokens[_token] = safeAdd(totalTokens[_token], _amount);\r\n    \r\n       \r\n        ERC20Interface(_token).transferFrom(msg.sender,address(this),_amount);\r\n        \r\n         tokenRoundId[_token]=safeAdd(tokenRoundId[_token],1);\r\n         uint256 _tokenRoundId = tokenRoundId[_token];\r\n        \r\n        roundWiseToken[_token][msg.sender][_tokenRoundId] = safeAdd(\r\n            roundWiseToken[_token][msg.sender][_tokenRoundId],\r\n            _amount \r\n        );\r\n        \r\n        stackBalance[_token][msg.sender] = safeAdd(stackBalance[_token][msg.sender], _amount );\r\n        \r\n        if (lastStackClaimed[_token][msg.sender] == 0) {\r\n            lastStackClaimed[_token][msg.sender] = _tokenRoundId;\r\n        }\r\n        emit Stack(_tokenRoundId,_token, msg.sender, _amount );\r\n        return true;\r\n    }\r\n    \r\n    \r\n    function stackTokenBatch(address[] calldata _token,uint256[] calldata _amount) external returns(bool){\r\n        \r\n            for(uint i=0;i<_token.length;i++)\r\n            {\r\n                \r\n              stackToken(_token[i],_amount[i]);\r\n            }\r\n          return true;\r\n        \r\n    \r\n    }\r\n    \r\n    /**\r\n     * @dev stackign started each month by owner\r\n     **/\r\n    function startStacking(address _token) external onlyOwner() returns (uint256) {\r\n        require(totalTokens[_token] > 0,\"ERR_NO_STACKING\");\r\n        uint256 stackAmount = safeDiv(\r\n            safeMul(totalTokens[_token], annualMintPercentage[_token]),\r\n            120000\r\n        );\r\n        minter(_token).mintToken(stackAmount);\r\n        uint256 ratio = safeDiv(\r\n                safeMul(stackAmount, safeMul(DECIMAL_NOMINATOR, PERCENT_NOMINATOR)),\r\n                totalTokens[_token]\r\n            );\r\n        totalTokens[_token] = safeAdd(totalTokens[_token], stackAmount);\r\n        dayWiseRatio[_token][currentStackId] = ratio;\r\n        currentStackId = safeAdd(currentStackId, 1);\r\n        return currentStackId;\r\n    } \r\n    \r\n\r\n    \r\n    function _calculateStack(address _token,address _whom) internal view returns (uint256) {\r\n        uint256 _lastRound = lastStackClaimed[_token][_whom];\r\n        uint256 token;\r\n        uint256 _stackToken = 0;\r\n        if (_lastRound > 0) {\r\n            for (uint256 x = _lastRound; x < currentStackId; x++) {\r\n                token = safeAdd(token, roundWiseToken[_token][_whom][x]);\r\n\r\n                uint256 _tempStack = safeDiv(\r\n                    safeMul(dayWiseRatio[_token][x], token),\r\n                    safeMul(DECIMAL_NOMINATOR, PERCENT_NOMINATOR)\r\n                );\r\n                _stackToken = safeAdd(_stackToken, _tempStack);\r\n                 token = safeAdd(token, _tempStack);\r\n            }\r\n        }\r\n        return _stackToken;\r\n    }\r\n    \r\n    // show stack balance with what user get\r\n    function getStackBalance(address _token,address _whom) external view returns (uint256) {\r\n        uint256 _stackToken = _calculateStack(_token,_whom);\r\n        return safeAdd(stackBalance[_token][_whom], _stackToken);\r\n    }\r\n    \r\n    // claim only rewards\r\n    function claimOnlyRewards(address _token) external returns (bool) {\r\n        uint256 reward = _calculateStack(_token,msg.sender);\r\n        ERC20Interface(_token).transfer(msg.sender,reward);\r\n        totalTokens[_token] = safeSub(totalTokens[_token], reward);\r\n        lastStackClaimed[_token][msg.sender] = currentStackId;\r\n        emit StackClaimed(currentStackId,msg.sender,reward);\r\n        return true;\r\n    }\r\n    \r\n    // unlocking stack token\r\n    function unlockTokenFromStack(address _token) external returns (bool) {\r\n        require(totalTokens[_token] > 0,\"ERR_NO_UNSTAKE\");\r\n        uint256 reward = _calculateStack(_token,msg.sender);\r\n        uint256 actulToken = safeAdd(stackBalance[_token][msg.sender], reward);\r\n        ERC20Interface(_token).transfer(msg.sender,actulToken);\r\n        totalTokens[_token] = safeSub(totalTokens[_token], actulToken);\r\n        stackBalance[_token][msg.sender] = 0;\r\n        lastStackClaimed[_token][msg.sender] = 0;\r\n        emit UnStack(currentStackId, msg.sender, actulToken);\r\n        return true;\r\n    }\r\n    \r\n    // _percent should be mulitply by 100\r\n    function setAnnualMintPercentage(address _token,uint256 _percent) external returns (bool) {\r\n        annualMintPercentage[_token] = _percent;\r\n    }\r\n    \r\n    //accepting Minting OwnerShip\r\n    function acceptMintingOwnerShip() external onlyOwner() returns(bool){\r\n        newMintingOwner = address(this);\r\n        return true;\r\n    }\r\n    \r\n    function availabletokens()public view returns(uint){\r\n        return tokens.length;\r\n    }\r\n       \r\n      \r\n  \r\n}\r\n \r\n\r\n",
  "sourcePath": "D:\\Minddeft_tasks\\Staking\\contracts\\Staking.sol",
  "compiler": {
    "name": "solc",
    "version": "0.6.0+commit.26b70077.Emscripten.clang"
  },
  "schemaVersion": "3.2.3",
  "updatedAt": "2020-11-12T06:56:47.562Z",
  "networkType": "ethereum",
  "devdoc": {
    "methods": {
      "addaccountToPayNode(address,address)": {
        "details": "adding account in paynode *"
      },
      "removeaccountToPayNode(address,address)": {
        "details": "remove account from paynode*"
      },
      "setExtraMintingForNodes(uint256)": {
        "details": "owner can change extra mint percent for paynoder _extraMintForPayNodes is set in percent with mulitply 100 if owner want to set 1.25% then value is 125*"
      },
      "setMinimumBalanceForPayNoder(uint256)": {
        "details": "owner can change minimum balance requirement*"
      },
      "setPayNoderSlot(uint256)": {
        "details": "owner can set paynoder slots*"
      },
      "startStacking(address)": {
        "details": "stackign started each month by owner*"
      },
      "transferOwnership(address)": {
        "details": "Transfers ownership of the contract to a new account (`newOwner`). Can only be called by the current owner."
      }
    }
  },
  "userdoc": {
    "methods": {}
  }
}